{
  "contractName": "Invoice",
  "abi": [
    {
      "constant": false,
      "inputs": [
        {
          "name": "GSTN",
          "type": "string"
        },
        {
          "name": "CGSTN",
          "type": "string"
        },
        {
          "name": "INVNO",
          "type": "string"
        },
        {
          "name": "INVHASH",
          "type": "string"
        }
      ],
      "name": "createInvoice",
      "outputs": [],
      "payable": false,
      "stateMutability": "nonpayable",
      "type": "function"
    },
    {
      "constant": true,
      "inputs": [
        {
          "name": "invoiceId",
          "type": "string"
        }
      ],
      "name": "getCustomerGstn",
      "outputs": [
        {
          "name": "",
          "type": "string"
        }
      ],
      "payable": false,
      "stateMutability": "view",
      "type": "function"
    },
    {
      "constant": true,
      "inputs": [],
      "name": "owner",
      "outputs": [
        {
          "name": "",
          "type": "address"
        }
      ],
      "payable": false,
      "stateMutability": "view",
      "type": "function"
    },
    {
      "constant": true,
      "inputs": [
        {
          "name": "invoiceId",
          "type": "string"
        }
      ],
      "name": "getSupplierGstn",
      "outputs": [
        {
          "name": "",
          "type": "string"
        }
      ],
      "payable": false,
      "stateMutability": "view",
      "type": "function"
    },
    {
      "inputs": [],
      "payable": false,
      "stateMutability": "nonpayable",
      "type": "constructor"
    }
  ],
  "bytecode": "0x6060604052341561000f57600080fd5b336000806101000a81548173ffffffffffffffffffffffffffffffffffffffff021916908373ffffffffffffffffffffffffffffffffffffffff1602179055506107ab8061005e6000396000f300606060405260043610610062576000357c0100000000000000000000000000000000000000000000000000000000900463ffffffff16806319490e6a14610067578063503eaad71461018d5780638da5cb5b14610263578063bf922e44146102b8575b600080fd5b341561007257600080fd5b61018b600480803590602001908201803590602001908080601f0160208091040260200160405190810160405280939291908181526020018383808284378201915050505050509190803590602001908201803590602001908080601f0160208091040260200160405190810160405280939291908181526020018383808284378201915050505050509190803590602001908201803590602001908080601f0160208091040260200160405190810160405280939291908181526020018383808284378201915050505050509190803590602001908201803590602001908080601f0160208091040260200160405190810160405280939291908181526020018383808284378201915050505050509190505061038e565b005b341561019857600080fd5b6101e8600480803590602001908201803590602001908080601f01602080910402602001604051908101604052809392919081815260200183838082843782019150505050505091905050610475565b6040518080602001828103825283818151815260200191508051906020019080838360005b8381101561022857808201518184015260208101905061020d565b50505050905090810190601f1680156102555780820380516001836020036101000a031916815260200191505b509250505060405180910390f35b341561026e57600080fd5b61027661058b565b604051808273ffffffffffffffffffffffffffffffffffffffff1673ffffffffffffffffffffffffffffffffffffffff16815260200191505060405180910390f35b34156102c357600080fd5b610313600480803590602001908201803590602001908080601f016020809104026020016040519081016040528093929190818152602001838380828437820191505050505050919050506105b0565b6040518080602001828103825283818151815260200191508051906020019080838360005b83811015610353578082015181840152602081019050610338565b50505050905090810190601f1680156103805780820380516001836020036101000a031916815260200191505b509250505060405180910390f35b606060405190810160405280858152602001848152602001828152506001836040518082805190602001908083835b6020831015156103e257805182526020820191506020810190506020830392506103bd565b6001836020036101000a038019825116818451168082178552505050505050905001915050908152602001604051809103902060008201518160000190805190602001906104319291906106c6565b50602082015181600101908051906020019061044e9291906106c6565b50604082015181600201908051906020019061046b9291906106c6565b5090505050505050565b61047d610746565b6001826040518082805190602001908083835b6020831015156104b55780518252602082019150602081019050602083039250610490565b6001836020036101000a03801982511681845116808217855250505050505090500191505090815260200160405180910390206001018054600181600116156101000203166002900480601f01602080910402602001604051908101604052809291908181526020018280546001816001161561010002031660029004801561057f5780601f106105545761010080835404028352916020019161057f565b820191906000526020600020905b81548152906001019060200180831161056257829003601f168201915b50505050509050919050565b6000809054906101000a900473ffffffffffffffffffffffffffffffffffffffff1681565b6105b8610746565b6001826040518082805190602001908083835b6020831015156105f057805182526020820191506020810190506020830392506105cb565b6001836020036101000a03801982511681845116808217855250505050505090500191505090815260200160405180910390206000018054600181600116156101000203166002900480601f0160208091040260200160405190810160405280929190818152602001828054600181600116156101000203166002900480156106ba5780601f1061068f576101008083540402835291602001916106ba565b820191906000526020600020905b81548152906001019060200180831161069d57829003601f168201915b50505050509050919050565b828054600181600116156101000203166002900490600052602060002090601f016020900481019282601f1061070757805160ff1916838001178555610735565b82800160010185558215610735579182015b82811115610734578251825591602001919060010190610719565b5b509050610742919061075a565b5090565b602060405190810160405280600081525090565b61077c91905b80821115610778576000816000905550600101610760565b5090565b905600a165627a7a723058206e7cef0b3a4d902fefe10243cd73e2b07653c8a3a05aeca15fadf912be286ab30029",
  "source": "pragma solidity ^0.4.17;\n\ncontract Invoice {\n  address public owner;\n\n  struct InvoiceData{\n    string sgstn;\n    string cgstn;\n    string invoiceHash;\n    /* string state;\n    string pan; */\n    /* string name;\n    string billingAddress;\n    string shippingAddress;\n    string invoiceNo;\n    string invoiceDate;\n    int taxableAmount;\n    int totalTax;\n    int invoiceTotal; */\n\n  }\n  mapping (string => InvoiceData) invoiceMap;\n  /* mapping (string => string) supplierGSTN;\n  mapping (string => string) customerGSTN; */\n\n  function Invoice() public{\n    owner = msg.sender;\n  }\n  /* function createInvoice(string invoiceId, bytes32[] supplierDetail, bytes32[] customerDetail, bytes32[] invoiceDetail, int[] amountDetail) public {\n    suppliers[invoiceId] = Supplier(supplierDetail[0],supplierDetail[1],supplierDetail[2]);\n    customers[invoiceId] = Customer(customerDetail[0],customerDetail[1],customerDetail[2],customerDetail[3]);\n    invoices[invoiceId] = InvoiceInfo(invoiceDetail[0],invoiceDetail[1],invoiceDetail[2]);\n    amounts[invoiceId] = Amount(amountDetail[0],amountDetail[1],amountDetail[2]);\n  } */\n\n  /* function createInvoice(string GSTN,string STATE, string PAN, string CGSTN,string NAME,string BILLADD, string SHIPADD,string INVNO, string INVDATE, string REF, int TA, int TT, int IT) public {\n    invoiceMap[INVNO].sgstn = GSTN;\n    invoiceMap[INVNO].state = STATE;\n    invoiceMap[INVNO].pan = PAN;\n\n    invoiceMap[INVNO].cgstn = CGSTN;\n    invoiceMap[INVNO].name = NAME;\n    invoiceMap[INVNO].billingAddress = BILLADD;\n    invoiceMap[INVNO].shippingAddress = SHIPADD;\n\n    invoiceMap[INVNO].invoiceNo = INVNO;\n    invoiceMap[INVNO].invoiceDate = INVDATE;\n    invoiceMap[INVNO].referenceNo = REF;\n\n    invoiceMap[INVNO].taxableAmount = TA;\n    invoiceMap[INVNO].totalTax = TT;\n    invoiceMap[INVNO].invoiceTotal = IT;\n    /* supplierGSTN[INVNO] = GSTN;\n    customerGSTN[INVNO] = CGSTN;\n  } */\n\n  function createInvoice(string GSTN, string CGSTN,string INVNO,string INVHASH) public {\n    invoiceMap[INVNO] = InvoiceData(GSTN, CGSTN, INVHASH);\n    /* supplierGSTN[INVNO] = GSTN;\n    customerGSTN[INVNO] = CGSTN; */\n  }\n\n  function getSupplierGstn(string invoiceId) public constant returns (string) {\n    return invoiceMap[invoiceId].sgstn;\n  }\n  function getCustomerGstn(string invoiceId) public constant returns (string) {\n    return invoiceMap[invoiceId].cgstn;\n  }\n}\n",
  "sourcePath": "/Academic/DAPP/sample5/contracts/Invoice.sol",
  "compiler": {
    "name": "solc",
    "version": "0.4.18+commit.9cf6e910.Emscripten.clang"
  },
  "schemaVersion": "1.0.1",
  "updatedAt": "2018-01-21T05:54:52.072Z"
}